:020000040800F2
:1000000000000420554100085D0400085F0400085A
:100010006104000863040008650400080000000093
:10002000000000000000000000000000670400085D
:1000300069040008000000006B0400086D0400085B
:10004000A5410008A5410008A5410008A5410008F8
:10005000A5410008A5410008A5410008A5410008E8
:10006000A5410008A5410008A5410008A5410008D8
:10007000A5410008A5410008A5410008A5410008C8
:10008000A5410008A5410008A5410008A5410008B8
:10009000A5410008A5410008A5410008A5410008A8
:1000A000A5410008A5410008A5410008A541000898
:1000B000A5410008A5410008A5410008A541000888
:1000C000A5410008A5410008A5410008A541000878
:1000D000A5410008A5410008A5410008A541000868
:1000E000A5410008A5410008A5410008A541000858
:1000F000A5410008A5410008A5410008A541000848
:1001000000000000A5410008A5410008A541000825
:100110000000000000000000A5410008A541000803
:10012000A5410008A5410008A5410008A541000817
:10013000A5410008A5410008A5410008A541000807
:10014000A5410008A5410008A54100087504000864
:10015000A5410008A5410008A5410008A5410008E7
:10016000A5410008A54100080000000000000000B3
:10017000000000000000000000000000000000007F
:10018000A5410008A5410008000000000000000093
:10019000A5410008A5410008000000000000000083
:1001A000000000000000000000000000000000004F
:1001B000A54100080000000000000000A541000863
:0401C000A54100084D
:1001C40010B5054C237833B9044B13B10448AFF38D
:1001D40000800123237010BD2001002000000000D6
:1001E4002C46000808B5034B1BB103490348AFF381
:1001F400008008BD00000000240100202C460008F7
:1002040030B58BB00024059406940794089409949F
:100214000194224B1A6B42F004021A631A6B02F027
:1002240004020192019A02941A6B42F080021A634A
:100234001A6B02F080020292029A03941A6B42F043
:1002440002021A631A6B02F002020392039A0494E4
:100254001A6B42F001021A631B6B03F0010304934F
:10026400049B0F4D224644F28101284602F065FEAC
:100274004FF4005305930694079405A9094802F026
:1002840069FD44F2810305930123069307940894BE
:1002940005A9284602F05EFD0BB030BD00380240CF
:1002A400000402400008024072B6FEE700B595B0B3
:1002B4003422002107A803F099FF0023029303933B
:1002C4000493059306930093204A116C41F08051E6
:1002D4001164126C02F080520092009A01931C4B3C
:1002E4001A6842F440421A601B6803F440430193C5
:1002F400019B012307934FF4A023089302230D933A
:100304004FF480020E9208220F924FF4C0711091A4
:10031400042111911292139307A802F013FB88B9D8
:100324000F23029302230393002304934FF4805278
:1003340005920693032102A802F0F2F820B915B041
:100344005DF804FBFFF7B0FFFFF7AEFF0038024093
:100354000070004008B503F0B9FE02F08FFEFFF70D
:10036400A5FFFFF74DFF00F0A7F836E003F0D0FE3D
:10037400044603F0D2FE84423BD08021304802F090
:10038400E2FD03F0C5FE03F0CDFE36E003F0D0FE3F
:10039400044603F0D2FE84422FD04FF48041284813
:1003A40002F0D1FD03F0C4FE03F0CCFE25E0254BA2
:1003B4001B78012B2AD10021224B1970224C402595
:1003C4002A46204603F012FF422363704423A3709D
:1003D4002A4621461D4803F038FE03F08EFE02F043
:1003E40079FE0121164802F0AEFD03F07BFE0228DF
:1003F400BCD003F077FE0328C8D04FF40051144852
:1004040002F094FD134B18700128D0D00028E4D1D9
:100414000C4B1B78002BE0D10B4C40252A460021C5
:10042400204603F0E3FE422363705523A3702A465B
:100434002146064803F009FE024B01221A70CCE75C
:1004440000040240000000203C0100208001002044
:10045400000802407C010020FEE7FEE7FEE7FEE71D
:10046400FEE770477047704708B502F021FE08BDEB
:1004740008B5024800F059FE08BD00BF9C060020E4
:1004840082B0002100910B4B5A6C42F480425A64B2
:100494005A6C02F480420092009A01911A6C42F064
:1004A40080521A641B6C03F080530193019B02B0C9
:1004B400704700BF0038024008B500220F491048B9
:1004C40002F026FE70B90F490D4802F038FE60B9FB
:1004D4000D490B4803F0EBFD50B9094802F049FE01
:1004E40048B908BDFFF7E0FEEDE7FFF7DDFEEFE7F3
:1004F400FFF7DAFEF1E7FFF7D7FEF2E7040000208A
:1005040080010020A40000208800002012230B801A
:10051400004870473000002004230B8000487047D7
:10052400440000200C230B80004870472400002066
:10053400002393421ED200B510E00CF1370C01F8F1
:1005440013C000014FEA430C0CF1010C4FF0000EF4
:1005540001F80CE00133DBB2934209D24FEA107C7C
:10056400B0F1204FE9D20CF1300C01F813C0E8E7E8
:100574005DF804FB7047000038B50B4BD3F8100A44
:10058400D3F8144AD3F8183AC01800D138BD074D2F
:100594000822A91CFFF7CCFF042205F11201204612
:1005A400FFF7C6FFF2E700BF0070FF1F48000020FE
:1005B40008B51A230B80FFF7DFFF014808BD00BF11
:1005C4004800002008B50A4628B90549054803F043
:1005D4002CFB034808BD0249024803F026FBF8E758
:1005E4005C0400204446000810B50A46034C21462A
:1005F400034803F01AFB204610BD00BF5C04002032
:100604005846000808B50A4628B90549054803F0C4
:100614000CFB034808BD0249024803F006FBF8E757
:100624005C0400206C46000808B50A4628B9054950
:10063400054803F0FAFA034808BD0249024803F0EA
:10064400F4FAF8E75C0400208046000800207047B4
:100654000020704738B584463C4D00F1400E2C46CE
:10066400DCF80000DCF80410DCF80820DCF80C30BE
:100674000FC40CF1100C2546F445F0D1334803F0B7
:10068400BDFD0446022822D003283BD0A0F1190363
:10069400DBB2E12B51D8012003F029FD600003F007
:1006A40031FD2A4C40252A460021204603F09EFDB8
:1006B4004F2363704B23A3702A462146244803F03A
:1006C400C4FC234803F0E4FC00283CD138BD0220DC
:1006D40003F00DFD03F021FDB0FA80F0400903F0B2
:1006E40021FD1A4C40252A460021204603F07EFDB8
:1006F4004F2363704B23A3702A462146144803F00A
:10070400A4FCDEE7032003F0F2FC03F016FDB0FACC
:1007140080F0400903F016FD0C4C40252A460021C8
:10072400204603F063FD4F2363704B23A3702A46D6
:100734002146074803F089FCC3E7402203490448E3
:1007440003F083FCBDE74FF0FF30BFE75C060020F9
:100754008001002030B597B0044600211191129118
:100764001391149115913C2202A803F03FFD2368D4
:10077400B3F1A04F01D017B030BD2023029302A8DB
:1007840001F084FF002830D100250095184C236B1C
:1007940043F001032363236B03F001030093009BE5
:1007A4004FF4C0531193022312931395032314930C
:1007B4000A23159311A90F4802F0CCFA636B43F096
:1007C400800363630195636C43F480436364636CE7
:1007D40003F480430193019B2A462946432002F0F7
:1007E400CDFB432002F002FCC5E7FFF75DFDCBE73C
:1007F400003802400000024008B500F2C441D0F8BD
:10080400080502F0CCFC08BD08B501EBC10300EB00
:100814008303D3F88C22D0F8080502F08DFD08BDBF
:1008240008B501EBC10300EB8303DA6CD0F80805CB
:1008340002F0E5FD08BD08B5D0F8080502F027FD73
:1008440008BD10B50446C368022B09D10121D4F8B0
:10085400080502F002FDD4F8080502F0CCFC10BD36
:10086400FFF722FDF2E7000010B50446D0F80805B2
:1008740002F0F6FC2268D2F8003E43F00103C2F80D
:10088400003E236A23B1034A136943F0060313614C
:1008940010BD00BF00ED00E008B5D0F8080502F077
:1008A400E9FC08BD08B5D0F8080502F018FD08BD3C
:1008B40008B5D0F8080502F0FBFC08BD08B5D0F86F
:1008C400080502F023FD08BD08B5D0F8080502F0BC
:1008D4001FFD08BD02780AB10020704710B5034619
:1008E4001548C0F80835C3F8C8024FF0A0430360A8
:1008F400062343600222C260002303618261C36154
:10090400036243628362C362036300F01BF980B92C
:10091400094C8021204600F032FF4022002120466D
:1009240000F007FF80220121204600F002FF002092
:1009340010BDFFF7B9FCEBE79C060020D0F8C832E5
:1009440011F0800F08D101F07F0101EBC10103EB2D
:10095400810191F87E02704701F07F0101EBC10132
:1009640003EB810191F83E007047000010B5044686
:1009740011B1012916D010BD036A5BB92268D2F8FF
:10098400003E23F00103C2F8003ED4F8080502F04B
:1009940071FCF0E7FFF78AFC0C4A136923F00603A5
:1009A4001361EBE70268D2F8003E43F00103C2F89A
:1009B400003ED0F8080502F053FC236A002BDAD07D
:1009C400024A136943F006031361D4E700ED00E023
:1009D40000487047A80B00207047032805D8DFE8BB
:1009E40000F005040205012070470320704708B594
:1009F400D0F8C80200F044F9FFF7EFFF08BD08B5CE
:100A040094461A466346D0F8C80200F019FAFFF774
:100A1400E4FF08BD08B5D0F8C80200F056FAFFF7A5
:100A2400DCFF08BD08B5D0F8C80200F0E5FAFFF70E
:100A3400D4FF08BD08B5D0F8C80200F021FBFFF7C9
:100A4400CCFF08BD08B5D0F8C80200F0E5F9FFF7FF
:100A5400C4FF08BD08B5D0F8C80200F09EFAFFF73D
:100A6400BCFF08BD08B5D0F8C80200F067FAFFF76C
:100A7400B4FF08BD2DE9F04383B0D0F8008001EB4A
:100A8400C10300EB8303DA6D5B6D9A4254D80746C9
:100A94000C469B1A01EBC10200EB8202926C9A4253
:100AA40000D31A4602F103094FEA990915E006F149
:100AB40003094FEA990904EBC40507EB8505E96CC2
:100AC4003B7C0093B3B2E2B2404601F036FAEB6CE1
:100AD4003344EB64EB6D3344EB6508EB441303F5EB
:100AE40010639B699BB24B4512D304EBC40207EB22
:100AF4008202D16D536D99420AD24BB15B1A04EB59
:100B0400C40207EB8202966C9E42D0D31E46CEE707
:100B140004EBC40007EB80077A6DFB6D9A420FD893
:100B240004F00F040123A340D8F8344824EA030452
:100B3400C8F83448002000E0012003B0BDE8F08389
:100B44000020FAE770B58AB0002800F097800546C7
:100B5400046890F8BD343BB3032385F8BD34E36BDC
:100B640013F4807F01D100232B61286800F004FF77
:100B74002C4654F8106BEC460FCCACE80F000FCCAD
:100B8400ACE80F0094E803008CE803002B1D0ECBA7
:100B9400304600F033FE044658B1022385F8BD34D4
:100BA400012420460AB070BD80F8BC34FFF7D2FDA2
:100BB400D2E70021286801F0D7FB234616E003EBB7
:100BC400C30205EB8202012182F83D1082F83C3019
:100BD400A2F84430002182F840109164D16403EB00
:100BE400C30205EB820251650133DBB269688B42B3
:100BF400E5D316E004EBC40305EB8303002283F87A
:100C04007D2283F87C4283F88022C3F88822C3F8CB
:100C14008C2204EBC40305EB8303C3F89422013450
:100C2400E4B2A142E6D82C4654F8106BEC460FCC43
:100C3400ACE80F000FCCACE80F0094E803008CE89C
:100C440003002B1D0ECB304600F0F2FE044660B9C3
:100C5400002385F83830012385F8BD346B6A012BF5
:100C640008D0286801F03DFB9BE7022385F8BD34DA
:100C7400012496E7284600F086FDF2E7012490E778
:100C8400026890F8BC34012B19D010B50446012336
:100C940080F8BC34836A012B09D0206800F066FE1A
:100CA400206801F010FB002084F8BC0410BD8369A7
:100CB400012BF2D0936B43F480339363EDE702206E
:100CC4007047000070B504460D460068066C00EBE2
:100CD400411303F530639A682169012911D0384919
:100CE4008E4256D03DB905EBC50304EB8303D3F81C
:100CF4009432002B5ED0E9B22046FFF785FD002038
:100D040070BD12F0080F09D02E498E42F7D912F4A3
:100D1400004FF4D04FF400429A60F0E712F0200F35
:100D240002D020229A60EAE712F0280FE7D1254981
:100D34008E4206D912F4004F03D04FF400429A6059
:100D4400DDE705EBC50204EB8202D2F898121B69B9
:100D5400C3F31203CB1AC2F89C327DB905EBC5026A
:100D640004EB8202D2F894226AB105EBC50204EBCB
:100D74008202D2F88C120B44C2F88C32E9B22046BB
:100D8400FFF742FDBBE704F2C442012101F02EFB50
:100D9400F4E712F4004F03D04FF400429A60AEE738
:100DA40012F0200F01D020229A60E9B22046FFF70A
:100DB4002BFDA4E704F2C442002101F017FB9AE7DB
:100DC4000A31544F0A30544F38B5044603681D6C39
:100DD40003EB4113D3F8081B0E4A954207D903F5D8
:100DE400306311F4004F02D04FF400429A60204661
:100DF400FFF702FD074B9D4202D92369012B01D065
:100E0400002038BD04F2C4420121206801F0EEFA4A
:100E1400F6E700BF0A30544F90F8BC34012B0DD0D4
:100E240010B50446012380F8BC3480F838100068FB
:100E340001F039FA002084F8BC0410BD0220704788
:100E440038B505468C4611F0800F29D101F00F0EFC
:100E54000EEBCE04A40004F51E740444211D0EEB15
:100E6400CE0E00EB8E0E00208EF87D020CF00F0CDF
:100E740081F800C0CA600B714A780AB1A1F808C0B1
:100E8400022B1DD095F8BC34012B1CD0012385F80E
:100E9400BC34286800F0A1FE002085F8BC0438BDED
:100EA40001F00F0000EBC0018900383129440431FE
:100EB40000EBC00005EB8000012480F83D40D5E73D
:100EC40000234B71DEE70220E9E710B504460A4629
:100ED40011F0800F20D101F00F0000EBC0039B0044
:100EE40003F51E732344191D00EBC00004EB8000BE
:100EF400002380F87D3202F00F020A7094F8BC34AB
:100F0400012B19D0012384F8BC34206800F0B4FE0E
:100F1400002084F8BC0410BD01F00F0000EBC003F6
:100F24009B0038332344191D00EBC00004EB800000
:100F3400012380F83D30DEE70220ECE710B501F034
:100F44000F0404EBC401890001F51E71014404314E
:100F540004EBC40C00EB8C0CCCF88C22CCF894324F
:100F64000023CCF89C328CF87D328CF87C420369E7
:100F7400012B06D064B9DAB2006800F0EDFE00205F
:100F840010BD04EBC40C00EB8C0CCCF89022F1E700
:100F9400DAB2006800F0E8FFF1E710B501F00F04E1
:100FA40004EBC401890038310144043104EBC40C5E
:100FB40000EB8C0CCCF84C20CCF854300023CCF84B
:100FC4005C3001238CF83D308CF83C400369012BE4
:100FD40006D064B9DAB2006800F0BEFE002010BD8D
:100FE40004EBC40C00EB8C0CCCF85020F1E7DAB223
:100FF400006800F0B9FFF1E738B501F00F05426869
:10100400954239D804460B4611F0800F1FD101EBED
:10101400C101890001F51E710144043103EBC303CE
:1010240000EB8303002283F87D2201238B700D7073
:1010340094F8BC34012B21D0012384F8BC342068FB
:1010440001F0D6F88DB1002084F8BC0438BD05EB5E
:10105400C501890038310144043105EBC50300EBB7
:101064008303012283F83D20DFE704F2C442217C9C
:10107400206801F0BBF9E6E70120E7E70220E5E795
:1010840001F00F034268934231D810B5044611F0C1
:10109400800F1ED103EBC301890001F51E710144C9
:1010A400043103EBC30200EB8202002082F87D02CC
:1010B40000228A700B7094F8BC34012B19D00123E0
:1010C40084F8BC34206801F0C0F8002084F8BC0423
:1010D40010BD03EBC301890038310144043103EB33
:1010E400C30200EB8202012082F83D00E0E7012008
:1010F40070470220ECE708B511F0800F0CD101F025
:101104000F0101EBC101890001F51E710144043195
:10111400006800F0B3FE08BD01F00F0101EBC1014E
:101124008900383101440431F2E72DE9F04F83B0EE
:1011340004460568284601F013F910B103B0BDE870
:10114400F08F0646206801F0DAF80028F6D005F59D
:101154000067BB68C3F30D23C4F8FC34206801F0B6
:10116400CEF810F0020F04D02268536903F0020392
:101174005361206801F0C3F810F0100F14D02268F6
:10118400936923F010039361D5F8208008F00F09C8
:10119400C8F34343022B69D0062B00F08D802268EC
:1011A400936943F010039361206801F0A8F810F4E8
:1011B400002F40F09380206801F0A1F810F4802FF4
:1011C40040F0FC80206801F09AF80028C0F27F818A
:1011D400206801F094F810F4006F09D0BB6813F094
:1011E400010F40F08C812268536903F4006353615A
:1011F400206801F084F810F0006F15D0226853695C
:1012040003F00063536194F8F434002B40F07B81C5
:10121400012184F8F41423685B6DC3F38303C4F8D9
:10122400F8342046FFF7A2FB206801F068F810F4B8
:10123400805F40F06C81206801F061F810F4005F79
:1012440040F0B981206801F05AF810F0080F40F01E
:10125400CA81206801F053F810F0800F00F0DD819E
:10126400AB6923F08003AB610126C6E147F6F07356
:1012740018EA030F93D04FEA181B4FEAC9030193EE
:1012840009EBC90A04EB8A0AC8F30A12DAF88C12C9
:10129400284600F083FFCBF30A0BDAF88C325B4468
:1012A400CAF88C32019B4B4404EB8303D3F89C3281
:1012B4005B44CAF89C3272E7082204F2C44128460F
:1012C40000F06CFFC8F30A1809EBC90204EB8202B0
:1012D400D2F89C324344C2F89C3260E7206801F0A3
:1012E40012F88046B14635E005EB49130122C3F8F4
:1012F400082B49462046FFF7E5FC3CE005EB491383
:101304000822C3F8082B49462046FFF75DFD35E067
:1013140009EBC90304EB830393F87F32012B41D01B
:1013240005EB49130222C3F8082B1AF0200F04D04E
:1013340005EB49132022C3F8082B1AF4005F05D0EB
:1013440005EB49134FF40052C3F8082B09F10109C6
:101354004FEA5808B8F1000F3FF42DAF18F0010F11
:10136400F4D05FFA89FB5946206800F0DCFF82461E
:1013740010F0010FB8D11AF0080FBFD11AF0100FF6
:1013840004D005EB49131022C3F8082B1AF0020FFE
:10139400CBD06B6913F0800FBAD07B6843F48063C1
:1013A4007B60B5E709EBC90304EB8303002283F8F0
:1013B4007F2259462046FFF775FAB1E7206800F00E
:1013C400AAFF8046B14625E059462046FFF728FA91
:1013D4001AF0080F04D005EB49130822C3F80829B2
:1013E4001AF0100F04D005EB49131022C3F8082992
:1013F4001AF0400F04D005EB49134022C3F8082922
:101404001AF0020F40D11AF0800F5BD109F10109E3
:101414004FEA5808B8F1000F3FF4D4AE18F0010FAA
:10142400F4D05FFA89FB5946206800F085FF8246B4
:1014340010F0010FCCD009F00F03012101FA03F2DF
:101444007B6B23EA02037B6305EB4913C3F808199A
:1014540023698B42B8D109EBC90304EB8303996C6C
:10146400DA6C0A44DA64B9F1000FADD109EBC903AF
:1014740004EB83035B6D002BA6D104F2C44201216B
:10148400206800F0B3FF9FE74946284600F07AFA47
:1014940009EBC90304EB830393F83F30012B05D018
:1014A40005EB49130222C3F80829ACE709EBC90389
:1014B40004EB8303002283F83F2059462046FFF7BC
:1014C400F7F9EDE749462046FFF7D4FA9EE77B6833
:1014D40023F001037B6094F8F434012B08D02046F8
:1014E400FFF7DAF92268536903F0004353616FE6AA
:1014F400002184F8F4142046FFF738FAF2E7204676
:10150400FFF7B2F96FE62046FFF7AEF98CE67B6889
:1015140023F001037B601021206800F033FA1AE005
:1015240005EB46134FF67F31C3F80819D3F80029A9
:1015340022F40012C3F80029C3F8081BD3F8002BC7
:1015440022F40012C3F8002BD3F8002B42F00062FF
:10155400C3F8002B01366368B342E1D8FB6943F05A
:101564000113FB61236BDBB1D7F8843043F00B0329
:10157400C7F884307B6C43F00B037B64D5F80038E8
:1015840023F4FE63C5F8003804F2C442217C2068C9
:1015940000F02CFF2268536903F4805353614AE638
:1015A4007B6943F4005343F02B037B613B6943F0B5
:1015B4000B033B61E2E7206800F007FF206800F0BE
:1015C400FBFAE060266801F05BF80146227B3046B6
:1015D40000F05AF92046FFF734F92268536903F4FE
:1015E400005353612EE62046FFF725F9226853691C
:1015F40003F0080353612CE601366368B3420CD947
:1016040006EBC60304EB830393F87F32012BF3D17B
:10161400F1B22046FFF76FFDEEE7206800F06FFEA1
:1016240010F4801F27D1206800F069FE10F4001F19
:101634005BD0012328E001366368B3421DD905EB72
:101644004613D3F8002906EBC60304EB830393F88F
:101654004030012BEFD1002AEDDA06EBC60304EB90
:101664008303012283F83F2066F07F01C9B220463C
:10167400FFF741FDDFE70126DEE72268536903F443
:1016840080135361CFE7013362689A4228D905EB8E
:101694004312D2F8001B03EBC30204EB820292F85C
:1016A4008022012AEFD10029EDDA01F48031D4F847
:1016B400FC2402F001029142E5D103EBC30204EBE6
:1016C4008202012182F87F12AA6942F08002AA6193
:1016D4006A6912F0800FD6D17B6843F400737B6093
:1016E4002268536903F400135361206800F007FE75
:1016F40010F0804F10D1206800F001FE10F0040FAC
:101704003FF41CAD23685D6815F0040F0DD1226809
:1017140053682B43536011E52046FFF7CFF8226846
:10172400536903F080435361E5E72046FFF7CCF8A3
:10173400EDE710B40468606A31B940EA0240A0627F
:1017440000205DF8044B70478C46A36A00EB1340FD
:10175400002308E003F1400104EB8101496800EB38
:1017640011400133DBB20CF1FF318B42F2D340EA7A
:1017740002400CF13F0104EB81014860E0E703689B
:10178400596200207047034602680121C0F8001521
:10179400002083F8F404936943F000639361536D6C
:1017A40043F0805343F003035365704782B0002332
:1017B4000193019B01330193019A0F4B9A4215D86F
:1017C4000369002BF5DA00230193036943F0010355
:1017D4000361019B01330193019A074B9A4208D894
:1017E400036913F0010FF4D1002000E0032002B0DC
:1017F40070470320FBE700BF400D030084B010B521
:10180400044603A880E80E00089B012B1FD1A36B9C
:1018140023F48033A363E36823F4840323F04003B5
:10182400E360E36823F44013E3600F9B012B09D0CA
:101834002046FFF7BBFF069B012B1BD0BDE81040E1
:1018440004B07047E36843F48013E360F0E7E368AF
:1018540043F04003E3602046FFF7A8FF0C9B23B945
:10186400A36B43F48033A363E5E7A36B23F48033D2
:10187400A363E0E7A36843F00603A360A36843F00F
:101884002003A360DAE70000022A0AD00921C26813
:1018940022F47052C260C36843EA8123C36000200B
:1018A4007047234B0B44234A93422FD9224B0B44BA
:1018B400224A93422CD9A1F57403A3F51053204A6C
:1018C400934227D9A1F18373A3F5E7431D4A9342B9
:1018D40022D31D4B0B441D4A93421FD91C4B0B446E
:1018E4001C4A93421CD31C4B0B441C4A934219D3ED
:1018F400A1F1B773A3F55853194A934214D3194B62
:101904000B44194A934211D20721C0E70F21BEE7C5
:101914000E21BCE70D21BAE70C21B8E70B21B6E78D
:101924000A21B4E70921B2E70821B0E70621AEE7AE
:10193400405327FFFF340C00401E1BFF3F420F00A3
:101944007F4F120020D6130060B6E5FE5FE3160059
:1019540000D3CEFE40771B00C05BB3FEC0912100D4
:1019640020753800E05459FEE09C4100836843F040
:101974000103836000207047836823F001038360C0
:101984000020704782B000230193019B013301932F
:10199400019A0F4B9A4215D80369002BF5DA0023FC
:1019A4000193890141F020010161019B01330193FD
:1019B400019A074B9A4208D8036913F0200FF4D117
:1019C400002000E0032002B070470320FBE700BFC3
:1019D400400D030082B000230193019B0133019366
:1019E400019A0E4B9A4213D80369002BF5DA0023AF
:1019F400019310230361019B01330193019A074B67
:101A04009A4208D8036913F0100FF4D1002000E0C3
:101A1400032002B070470320FBE700BF400D030022
:101A2400D0F800381943C0F80018002070470000AF
:101A340084B02DE9F041044607A880E80E00002395
:101A440006E003F1400204EB8202002151600133FD
:101A54000E2BF6D9119F27BBD4F8043843F00203A8
:101A6400C4F80438A36B23F40013A363236843F07E
:101A740040032360236843F0800323600023C4F8F9
:101A8400003E04F50065D4F80038C4F800380C9B17
:101A9400012B10D1099B4BB900212046FFF7C0FF51
:101AA4000DE0A36B43F40013A363E7E70121204691
:101AB400FFF7B6FF03E003212046FFF7B1FF102133
:101AC4002046FFF75FFF804608B14FF0010820462B
:101AD400FFF780FF08B14FF0010800232B616B6111
:101AE400EB610AE0C3B94FF00060C2F800090022BC
:101AF4000A614FF67F328A6001330799994210D9FF
:101B040004EB431202F51061D2F800090028E9DB66
:101B14000020C2F80009EAE74FF09040C2F800093B
:101B2400E5E700230AE0C3B14FF0904CC2F800CBC4
:101B3400002202614FF67F3282600133994211D94B
:101B440004EB431202F53060D2F8006B002EEADB9E
:101B54004FF0000CC2F800CBEAE74FF0006CC2F87B
:101B640000CBE5E72B6923F480732B610023A36189
:101B74006FF0804363610A9B1BB9A36943F01003B0
:101B8400A361A2690B4B1343A3610D9B1BB1A36912
:101B940043F00803A361012F04D04046BDE8F0419F
:101BA40004B07047A36943F0804343F00403A36186
:101BB400F3E700BF00383C80D0F8083813F0060380
:101BC40007D0022B07D0062B01D00F20704702202C
:101BD4007047002070470220704710B591F800C08C
:101BE4004B78012B23D000F5006ED0F81C380CF094
:101BF4000F040122A24043EA0243C0F81C3800EB60
:101C04004C10D0F8003B13F4004F0ED1D0F8003B39
:101C1400CA68C2F30A02097942EA8142134343F0D3
:101C2400805343F40043C0F8003B002010BDD0F8BB
:101C34001C280CF00F0E03FA0EF39BB21343C0F8EA
:101C44001C3800EB4C10D0F8003913F4004FECD1E1
:101C5400D0F80039CA68C2F30A02097942EA81421B
:101C640042EA8C5C43EA0C0343F0805343F40043A0
:101C7400C0F80039D9E7000030B40B784A78012A5B
:101C840026D000EB4313D3F8002B002A52DBD0F804
:101C94003C480A7802F00F024FF0010C0CFA02F2F1
:101CA40024EA0242C0F83C28D0F81C28097801F044
:101CB4000F010CFA01FC22EA0C42C0F81C28D3F8EC
:101CC400001B234A0A40C3F8002B002030BC704795
:101CD40000EB4313D3F80029002A1EDBD0F83C584C
:101CE4000A7802F00F02012404FA02F292B225EA01
:101CF4000202C0F83C28D0F81C28097801F00F0132
:101D04008C40A4B222EA0404C0F81C48D3F8001999
:101D1400104A0A40C3F80029D7E7D3F8002942F053
:101D24000062C3F80029D3F8002942F08042C3F8C6
:101D34000029D3E7D3F8002B42F00062C3F8002B4C
:101D4400D3F8002B42F08042C3F8002B9FE700BF7A
:101D54000078F3EF007833EC70B40B784C78012CF6
:101D640029D000EB431000F530631C69E40CE40453
:101D74001C611C6924F0FF5424F4C0141C618C6998
:101D84000CB1CC688C61CC68CC611C6944F400242F
:101D94001C611C69CD69C5F3120C44EA0C041C6176
:101DA400012A66D0D0F8003B43F00443C0F8003B5E
:101DB400002070BC70478C696CBB00EB4314D4F8F2
:101DC400105925F0FF5525F4C015C4F81059D4F85E
:101DD400105945F40025C4F81059D4F81059ED0CE5
:101DE400ED04C4F81059012A34D000EB4313D3F89E
:101DF400002942F00442C3F800298B69002BD7D094
:101E0400D0F834380A7802F00F0101228A401343D3
:101E1400C0F83438CCE700EB431404F510642569AA
:101E2400ED0CED042561256925F0FF5525F4C01559
:101E34002561CD688E69AE4200D98D61256945F46E
:101E44000025256125698E69C6F3120C45EA0C0547
:101E54002561C8E74A691AB100EB4311C1F8142996
:101E640000EB4310D0F8002942F00442C0F80029E6
:101E74009EE70A69002A95D05A6193E710B483B0AB
:101E8400024600230193487801280BD00B7802EB1B
:101E94004313D3F8000B00282DDB002003B05DF8BA
:101EA400044B70470B7802EB4313D3F80049002C22
:101EB40001DB0020F2E7D3F8004944F00064C3F8E2
:101EC40000490B7802EB4313D3F8004944F08044F3
:101ED400C3F80049019B01330193019C42F2107342
:101EE4009C42DBD80B7802EB4313D3F80039002B68
:101EF400F0DB0020D2E7D3F8000B40F00060C3F819
:101F0400000B0B7802EB4313D3F8000B40F0804036
:101F1400C3F8000B019B01330193019842F2107343
:101F2400984208D80B7802EB4313D3F8003B002BFC
:101F3400F0DB0020B2E70120B0E710B59DF80840BF
:101F440084B903334FEA930E4FF0000C08E000EB22
:101F5400023303F5805351F8044B1C600CF1010C5F
:101F6400F445F4D3002010BDF0B583B00B784C7861
:101F7400012C33D000EB431303F5306CDCF8104034
:101F8400E40CE404CCF81040DCF8104024F0FF54D6
:101F940024F4C014CCF810408C69002C40F0C780A5
:101FA400DCF81040CD68C5F312052C43CCF8104082
:101FB400DCF8104044F40024CCF81040012A00F06E
:101FC400D0800A79012A00F0D380D3F8002B42F0A4
:101FD4000442C3F8002B002003B0F0BD8C6984BB1D
:101FE40000EB4314D4F8105925F0FF5525F4C0151F
:101FF400C4F81059D4F8105945F40025C4F8105900
:10200400D4F81059ED0CED04C4F81059012A4CD041
:1020140000EB4313D3F8004944F00444C3F80049E7
:102024000C79012C6AD08B69002BD4D0D0F83438C9
:102034000A7802F00F0101228A401343C0F83438B1
:10204400C9E700EB4314D4F81059ED0CED04C4F8BF
:102054001059D4F8105925F0FF5525F4C015C4F8CB
:102064001059D4F810698D69CF683D44013DB5FB22
:10207400F7F5494F07EAC5453543C4F81059D4F874
:1020840010598E69C6F312063543C4F8105904F585
:1020940010640D79012DB9D1256925F0C04525615C
:1020A400256945F000552561B0E74A691AB100EB8E
:1020B4004314C4F814290A79012A08D000EB431305
:1020C400D3F8002942F00442C3F8002983E7D0F88A
:1020D400082812F4807F08D100EB4311D1F80029BD
:1020E40042F00052C1F80029E8E700EB4311D1F8AF
:1020F400002942F08052C1F80029DFE7D0F80848EF
:1021040014F4807F0CD1D3F8004944F00054C3F890
:10211400004900920B8B0A780969FFF70EFF5AE712
:10212400D3F8004944F08054C3F80049F1E7CD687E
:102134002C44013CB4FBF5F4A4B204FB05F5CD61D9
:10214400DCF81050144E06EAC4442C43CCF810407A
:10215400DCF81040CD69C5F312052C43CCF81040CF
:102164002CE70A69002A3FF42CAFCCF8142028E7A6
:10217400D0F8082812F4807F06D1D3F8002B42F05F
:102184000052C3F8002B20E7D3F8002B42F0805212
:10219400C3F8002B19E700BF0000F81F00B583B097
:1021A400844608464FEA920E02F00302002305E03B
:1021B4000CF58051096840F8041B01337345F7D3CB
:1021C4009AB10CF5805CDCF8003001934FF0000C00
:1021D4005FFA8CF3D900019BCB4000F8013B0CF172
:1021E400010C013A92B2002AF2D103B05DF804FB6B
:1021F4000B784A78012A14D000EB4310D0F8002B56
:10220400002A06DB2BB1D0F8003B23F08043C0F852
:10221400003BD0F8003B43F40013C0F8003B00201F
:10222400704700EB4310D0F80029002A06DB2BB1DD
:10223400D0F8003923F08043C0F80039D0F80039D1
:1022440043F40013C0F80039E9E70B784A78012A0F
:102254000ED000EB4310D0F8003B23F40013C0F879
:10226400003B0B79023BDBB2012B15D900207047F0
:1022740000EB4310D0F8003923F40013C0F8003900
:102284000B79023BDBB2012BF0D8D0F8003943F0D4
:102294008053C0F80039E9E7D0F8003B43F080539D
:1022A400C0F8003BE2E7D0F8003823F4FE63C0F83E
:1022B4000038D0F80038090101F4FE611943C0F870
:1022C400001800207047D0F8003E23F00303C0F844
:1022D400003ED0F8043823F00203C0F8043800208C
:1022E4007047D0F8003E23F00303C0F8003ED0F856
:1022F400043843F00203C0F80438002070474269F0
:10230400806910407047D0F8183800F50060C06943
:102314001840000C7047D0F8183800F50060C06908
:10232400184080B2704700EB4111D1F8082B00F53A
:10233400006040691040704710B4D0F81048D0F8DD
:10234400343801F00F02D340DB01DBB2234300EB4E
:10235400411000F51060806818405DF8044B704728
:10236400406900F00100704738B50546C36823F0A2
:10237400C043C360012913D019BBC36843F0804331
:10238400C3600024012000F0A5FE01342846FFF7B5
:10239400E7FF08B1312CF5D9322C14D0002038BD18
:1023A400C36843F00053C3600024012000F092FE90
:1023B40001342846FFF7D4FF0128EDD0312CF4D99D
:1023C400EAE70120EBE70120E9E7D0F8003923F43C
:1023D400FF6323F00703C0F80039D0F8043843F44E
:1023E4008073C0F8043800207047000010B4046CF7
:1023F400154B9C4203D9D0F8003B002B16DB00247C
:10240400C0F8104BD0F8104B44F40024C0F8104B23
:10241400D0F8104B44F01804C0F8104BD0F8104B0F
:1024240044F0C044C0F8104B012903D000205DF8EB
:10243400044B7047C0F8142BD0F8003B43F08023C2
:10244400C0F8003BF2E700BF0A30544F08B5314BE7
:102454009B6803F00C03042B57D0082B57D12D4B4A
:102464005A6802F03F025B6813F4800F2AD0294BAC
:102474005968C1F3881C4FEA4C11B1EB0C006EEBA8
:102484000E0E4FEA8E1343EA90638101091A63EB3F
:102494000E03DB0043EA5173C90011EB0C0C43F14A
:1024A4000003590200234FEA4C2041EADC5101F0B9
:1024B400FCFE184B5B68C3F3014301335B00B0FBC4
:1024C400F3F025E0134B5968C1F3881C4FEA4C1113
:1024D400B1EB0C006EEB0E0E4FEA8E1343EA9063E1
:1024E4008101091A63EB0E03DB0043EA5173C9004F
:1024F40011EB0C0C43F10003990200234FEA8C20EA
:1025040041EA9C5101F0D1FED3E7034800E00348BF
:1025140008BD00BF0038024000127A000024F40015
:10252400002800F09B8070B50D4604464F4B1B6895
:1025340003F007038B4208D2CBB24C4A13701368E2
:1025440003F007038B4240F08B80236813F0020FE3
:1025540017D013F0040F04D0454A936843F4E053B2
:102564009360236813F0080F04D0414A936843F43E
:10257400604393603E4A936823F0F003A1680B43E1
:102584009360236813F0010F32D06368012B21D0CC
:102594009A1E012A25D9364A126812F0020F61D018
:1025A40033498A6822F0030213438B6000F08CFDE8
:1025B40006462F4B9B6803F00C036268B3EB820F53
:1025C40016D000F081FD801B41F288339842F0D987
:1025D400032042E0264A126812F4003FE0D10120B1
:1025E4003BE0234A126812F0007FD9D1012034E085
:1025F4001E4B1B6803F00703AB4207D9EAB21B4B1F
:102604001A701B6803F00703AB422DD1236813F043
:10261400040F06D0164A936823F4E053E1680B4391
:102624009360236813F0080F07D0114A936823F4CA
:102634006043216943EAC1039360FFF707FF0C4B32
:102644009B68C3F303130B4AD35CD8400A4B18604E
:102654000A4B186800F0ECFC002070BD01207047A4
:102664000120FAE70120F8E70120F6E7003C0240E8
:102674000038024098460008A00000209C0000207A
:10268400014B1868704700BFA000002070B582B0ED
:102694000446056815F001050CD0A64AD2F88C3022
:1026A40023F0C06341690B43C2F88C304369002BAB
:1026B4006ED00025236813F0020F0BD09D4AD2F888
:1026C4008C3023F0C053A1690B43C2F88C30A3694A
:1026D40003B90125236813F0080F5BD1236813F0B5
:1026E400040F04D094F83820934BC3F8E0212368F6
:1026F40013F0100F08D08F4AD2F8943023F440031B
:10270400616A0B43C2F89430236813F0200F0DD094
:10271400884AD2F8943023F00063A16A0B43C2F8CC
:102724009430A36AB3F1006F00F09D80236813F026
:10273400400F08D07F4AD2F8943023F08053216AA6
:102744000B43C2F89430002D40F08F802368802B17
:1027540000F08B80236813F4807F08D0754AD2F888
:102764008C3023F00043E16A0B43C2F88C302368B9
:1027740013F4007F00F0DB806E4AD2F88C3023F42F
:102784000043216B0B43C2F88C30002002B070BDB3
:1027940001258FE700230193664B1A6C42F08052A7
:1027A4001A641B6C03F080530193019B634A136802
:1027B40043F48073136000F087FC06465F4B1B688C
:1027C40013F4807F06D100F07FFC801B0228F5D92A
:1027D4000320DBE7574B1B6F13F4407314D0E269FB
:1027E40002F440729A420FD0524B1A6F22F4407294
:1027F40053490120C1F8400E0020C1F8400E1A6769
:102804001B6F13F0010F12D1E36903F44072B2F5A8
:10281400407F1DD0474A936823F4F81393604549D9
:102824000B6FE269C2F30B0213430B6756E700F028
:102834004BFC06463F4B1B6F13F0020FE4D100F034
:1028440043FC801B41F288339842F3D903209DE76F
:1028540038498A6822F4F81223F0704323F4407351
:1028640013438B60DBE7012560E7354B00229A6652
:1028740000F02AFC05462F4B1B6813F0006F06D0AE
:1028840000F022FC401B0228F5D903207EE7626B8E
:10289400294BC3F8D820236813F0010F01D06269D3
:1028A400A2B113F0020F01D0A2697AB113F0200F84
:1028B40003D0A26AB2F1006F08D013F0400F12D017
:1028C400236A83B9A36AB3F1006F0CD16368A26869
:1028D40043EA8213E26843EA0263226943EA027329
:1028E400144AC2F88430236813F0800F0CD0636854
:1028F400A26843EA8213E26843EA0263226943EA74
:1029040002730C4AC2F884300D4B01229A6600F01F
:10291400DBFB0546074B1B6813F0006F7FF41AAF0F
:1029240000F0D2FB401B0228F4D903202EE700203C
:102934002CE700BF003802400010474200700040FE
:1029440000004742002800F0E98170B582B00446D7
:10295400036813F0010F3BD09F4B9B6803F00C03FB
:10296400042B2CD09C4B9B6803F00C03082B21D028
:102974006368B3F5803F4FD0B3F5A02F52D0964B88
:102984001A6822F480321A601A6822F480221A60CB
:102994006368002B50D000F097FB05468E4B1B68F4
:1029A40013F4003F14D100F08FFB401B6428F5D9C9
:1029B4000320BAE1884B5B6813F4800FD8D0864BB0
:1029C4001B6813F4003F03D06368002B00F0A88158
:1029D400236813F0020F54D07F4B9B6813F00C0F45
:1029E4003ED07D4B9B6803F00C03082B33D0E36887
:1029F400002B68D0794B01221A6000F065FB054674
:102A0400754B1B6813F0020F54D100F05DFB401BA3
:102A14000228F5D9032088E16F4A136843F4803310
:102A24001360B5E76C4B1A6842F480221A601A6886
:102A340042F480321A60ABE700F046FB0546664B71
:102A44001B6813F4003FC3D000F03EFB401B642816
:102A5400F5D9032069E1604B5B6813F4800FC6D19C
:102A64005D4B1B6813F0020F03D0E368012B40F0A9
:102A74005981594A136823F0F803216943EAC103D1
:102A84001360236813F0080F42D063696BB3534B90
:102A94000122C3F8802E00F017FB05464E4B5B6FF6
:102AA40013F0020F34D100F00FFB401B0228F5D9BC
:102AB40003203AE1484A136823F0F803216943EA02
:102AC400C1031360DDE7454B00221A6000F0FCFAF5
:102AD4000546414B1B6813F0020FD2D000F0F4FA04
:102AE400401B0228F5D903201FE13C4B0022C3F808
:102AF400802E00F0E9FA0546374B5B6F13F0020FA6
:102B040006D000F0E1FA401B0228F5D903200CE1BD
:102B1400236813F0040F77D02F4B1B6C13F0805FE6
:102B240033D1002301932C4B1A6C42F080521A6467
:102B34001B6C03F080530193019B0125284B1B68F8
:102B440013F4807F23D0A368012B34D0052B38D015
:102B5400214B1A6F22F001021A671A6F22F0040245
:102B64001A67A368002B3DD000F0AEFA06461A4B54
:102B74001B6F13F0020F46D100F0A6FA801B41F23E
:102B840088339842F3D90320CFE00025D6E7144ACE
:102B9400136843F48073136000F096FA0646104BF2
:102BA4001B6813F4807FCED100F08EFA801B0228BC
:102BB400F5D90320B9E0084A136F43F00103136702
:102BC400CFE7054B1A6F42F004021A671A6F42F0FE
:102BD40001021A67C5E700BF0038024000004742FF
:102BE4000070004000F070FA0646584B1B6F13F05B
:102BF400020F08D000F068FA801B41F28833984233
:102C0400F3D9032091E0EDB9A369002B00F08C8087
:102C14004E4A926802F00C02082A54D0022B17D0B4
:102C24004B4B00221A6600F04FFA0446474B1B68D0
:102C340013F0007F45D000F047FA001B0228F5D9B5
:102C4400032072E0414A136C23F080531364DBE7E2
:102C54003F4B00221A6600F037FA05463B4B1B68CF
:102C640013F0007F06D000F02FFA401B0228F5D99C
:102C740003205AE0E369226A1343626A43EA821337
:102C8400A26A5208013A43EA0243E26A43EA02634F
:102C9400226B43EA02732D4A53602D4B01221A66BC
:102CA40000F012FA0446294B1B6813F0007F06D18A
:102CB40000F00AFA001B0228F5D9032035E00020B1
:102CC40033E0002031E0012B31D0204B5B6803F46A
:102CD4008001E26991422CD103F03F02216A8A42C9
:102CE40029D1616A47F6C0721A40B2EB811F24D120
:102CF40003F44031A26A5208013AB1EB024F1ED1EB
:102D040003F07062E16AB2EB016F1AD103F0E043A1
:102D1400226BB3EB027F16D1002006E0012070473E
:102D2400012002E0012000E0002002B070BD01207B
:102D3400FBE70120F9E70120F7E70120F5E701208F
:102D4400F3E70120F1E70120EFE700BF003802407C
:102D54000000474200230F2B00F2DE8070B582B0E2
:102D640060E085685E000324B44025EA0405CC686D
:102D7400B4402C438460456825EA02054C68C4F3DA
:102D840000129A402A4342605AE0DC08083450F8A2
:102D9400246003F0070295000F22AA4026EA020EDF
:102DA4000A69AA4042EA0E0240F824205CE00622A6
:102DB40000E0002202FA0EF22A430234574D45F88D
:102DC4002420574A94686FEA0C0224EA0C054E68E2
:102DD40016F4801F01D04CEA0405514CA560E46848
:102DE40002EA04054E6816F4001F01D04CEA0405FB
:102DF4004B4CE560646802EA04054E6816F4003F33
:102E040001D04CEA0405464C6560246822404D68B4
:102E140015F4803F01D04CEA0402414C2260013396
:102E24000F2B77D801229A400C6804EA020C32EA8C
:102E34000404F4D14C6804F00304013C012C90D93F
:102E44004A6802F00302032A09D0C4685D00032221
:102E5400AA4024EA02048A68AA402243C2604A685B
:102E640002F00302022A90D004684FEA430E0322C0
:102E740002FA0EF224EA02044A6802F0030202FA99
:102E84000EF2224302604A6812F4403FC7D0002287
:102E94000192244A546C44F480445464526C02F405
:102EA40080420192019A9C08A51C1C4A52F82550A4
:102EB40003F003024FEA820E0F2202FA0EF225EA11
:102EC4000205194A90423FF474AF02F580629042C1
:102ED40016D002F58062904214D002F580629042CE
:102EE40012D002F58062904210D002F580629042C6
:102EF4000ED002F5806290423FF459AF072259E7A1
:102F0400012257E7022255E7032253E7042251E73F
:102F140005224FE702B070BD704700BF0038014082
:102F2400003C01400038024000000240036919429D
:102F340001D001207047002070470AB181617047B9
:102F4400090481617047436901EA030221EA03012C
:102F540041EA024181617047074AD36823F4E06380
:102F64001B041B0C000200F4E060034343F0BF6346
:102F740043F40033D360704700ED00E000B5194B13
:102F8400DB68C3F30223C3F1070CBCF1040F28BFB1
:102F94004FF0040C03F1040EBEF1060F18D9033BE5
:102FA4004FF0FF3E0EFA0CFC21EA0C0199400EFA98
:102FB40003F322EA0303194300280BDB0901C9B216
:102FC40000F1604000F5614080F800135DF804FBF7
:102FD4000023E5E700F00F000901C9B2024B1954C0
:102FE400F4E700BF00ED00E014ED00E0002807DB8B
:102FF40000F01F02400901239340024A42F82030A6
:10300400704700BF00E100E00138B0F1807F0BD2CF
:103014004FF0E0235861054AF02182F82310002084
:10302400986107221A6170470120704700ED00E0A3
:1030340010B504460E4B18784FF47A73B3FBF0F3D3
:103044000C4A1068B0FBF3F0FFF7DEFF68B90F2CF1
:1030540001D901200AE0002221464FF0FF30FFF79A
:103064008DFF054B1C60002000E0012010BD00BF57
:1030740098000020A00000209C00002008B50B4B05
:103084001A6842F400721A601A6842F480621A6084
:103094001A6842F480721A600320FFF75DFF002073
:1030A400FFF7C6FFFDF7ECF9002008BD003C024025
:1030B400034A1168034B1B780B441360704700BF2D
:1030C400000C002098000020014B1868704700BFD6
:1030D400000C002038B50446FFF7F6FF0546B4F1AE
:1030E400FF3F02D0044B1B781C44FFF7EDFF401B4D
:1030F400A042FAD338BD00BF98000020034AD2F89A
:10310400883043F47003C2F88830704700ED00E063
:1031140098B108B503460020C3F8B802C3F8C40246
:10312400C3F8D00209B1C3F8B412012183F89C1288
:103134001A701846FDF7CEFB08BD0320704710B582
:1031440082B00023ADF8063089B10446C0F8B81245
:10315400CB6A23B10DF106009847C4F8D002D4F825
:10316400D8320133C4F8D832002002B010BD032095
:10317400FBE708B5FDF73BFC08BD08B5D0F8B8324D
:1031840013B11B68984708BD0020FCE708B5D0F8C8
:10319400B8325B68984700B908BD0320FCE738B52E
:1031A400044600F2AA25284600F0C4F90123C4F815
:1031B4009432B4F8B032C4F8983294F8AA1201F0F8
:1031C4001F03012B0DD0022B10D02BB101F0800175
:1031D4002046FDF727FC03E02946204600F090FB3B
:1031E40038BD2946204600F0C6FBF9E729462046AB
:1031F40000F003FCF4E7F8B50446012380F89C32A0
:103204000023C0F894324360C0F8A43280F8A0329E
:10321400D0F8B832DBB15B68DBB1002198470746D0
:10322400C8B94023002211462046FDF7E8FB0126D9
:10323400A4F864614025C4F860512B460022802123
:103244002046FDF7DCFBA68425623846F8BD00273E
:10325400E7E70027E5E70327E3E701740020704769
:1032640090F89C32DBB280F89D32042380F89C32C3
:103274000020704790F89C32DBB2042B01D0002070
:10328400704790F89D32DBB280F89C32F7E708B5BE
:1032940090F89C32DBB2032B01D0002008BDD0F89B
:1032A400B832002BF9D0DB69002BF6D09847F4E74D
:1032B40008B5D0F8D432AE3350F823205AB190F880
:1032C4009C32DBB2032B01D0002008BD136A23B16A
:1032D40098470020F9E70320F7E70020F5E708B551
:1032E400D0F8D432AE3350F823205AB190F89C323F
:1032F400DBB2032B01D0002008BD536A23B19847E9
:103304000020F9E70320F7E70020F5E700207047E5
:1033140008B5012380F89C32D0F8B83223B15B6839
:103324000179984710B908BD0020FCE70320FAE7AB
:10333400002070470020704738B504460D46002928
:1033440043D11346D0F89422032A01D0084638BD4D
:10335400D0F85C11D0F86021914212D890F8AA32CA
:1033640003F01F03012B17D0022B1CD0284694F81E
:103374009C32DBB2032B1BD0204600F09FFC284676
:10338400E5E7891AC0F85C118A4228BF0A46194643
:1033940000F08CFC2846DAE790F8AE12FFF7C8FF7D
:1033A4000028E9D1E3E790F8AE12FFF7C3FFF7E78F
:1033B40000F1AE0354F823301A69002ADCD0C4F8B3
:1033C400D4021B6920469847D6E701F07F01FFF736
:1033D400B1FF90B994F89C32DBB2032BB7D100F162
:1033E400AE0354F823309A69002AB0D0C4F8D4024A
:1033F4009B69294620469847A9E70020A7E738B5E6
:1034040004460D4600294BD11346D0F89422022AD3
:1034140007D094F8A00218B1002384F8A0322846FB
:1034240038BDC269016A8A420ED88A4218D094F81B
:103434009C32DBB2032B27D080212046FDF7F2FA21
:10344400204600F046FCE4E7521AC261194600F037
:1034540016FC00231A4619462046FDF703FBD8E75D
:1034640083699942E3D8D0F898229342DFD20022AC
:10347400114600F004FC0021C4F898120B460A46D9
:103484002046FDF7EFFAC4E7D4F8B832DA68002A28
:10349400D2D00022C4F8D422DB6820469847CBE778
:1034A40041F08001FFF746FF90B994F89C32DBB2FB
:1034B400032BB5D100F1AE0354F823305A69002A26
:1034C400AED0C4F8D4025B69294620469847A7E7E2
:1034D4000020A5E703780A8813440B800378184476
:1034E4007047428803789A4218D930B583B00446AD
:1034F4000D46ADF806306288BDF806309A420AD906
:103504000DF10601FFF7E6FF4378052BF3D183782D
:10351400AB42F0D100E0002003B030BD0020704782
:103524000346002002E00130C0B201331A78002AB9
:10353400F9D170470B7803704B7843708B78CA7855
:1035440043EA022343800B794A7943EA02238380C6
:103554008B79CA7943EA0223C380704710B50446C5
:103564008021FDF75FFA00212046FDF75BFA10BDCC
:1035740030B583B004460D460023ADF806304A88C2
:10358400130A013B0E2B00F2BC80DFE803F0153078
:1035940044BABA9EABBABABABABABABA0800D0F840
:1035A400B432DB6923B10DF10601007C98470AE0CF
:1035B4002946FFF7D3FF18E0D0F8B4321B680DF1A9
:1035C4000601007C9847EA88002A00F0A380BDF831
:1035D4000630002B00F099809A4228BF1A46ADF8B5
:1035E40006200146204600F03DFB03B030BD037CBD
:1035F40043B9D0F8B8329B6A0DF10600984702230C
:103604004370E0E7D0F8B832DB6A0DF10600984762
:1036140002234370D7E7D2B2052A52D8DFE802F07A
:1036240003101D2A3744D0F8B4325B6823B10DF17E
:103634000601007C9847C6E72946FFF78FFFD4E7C9
:10364400D0F8B4329B6823B10DF10601007C984791
:10365400B9E72946FFF782FFC7E7D0F8B432DB6841
:1036640023B10DF10601007C9847ACE72946FFF72A
:1036740075FFBAE7D0F8B4321B6923B10DF1060126
:10368400007C98479FE72946FFF768FFADE7D0F82D
:10369400B4325B6923B10DF10601007C984792E7CF
:1036A4002946FFF75BFFA0E7D0F8B4329B6923B14A
:1036B4000DF10601007C984785E72946FFF74EFF88
:1036C40093E72946FFF74AFF8FE7037C33B9D0F825
:1036D400B8325B6B0DF10600984774E72946FFF793
:1036E4003DFF82E7037C43B9D0F8B8321B6B0DF180
:1036F400060098470723437065E72946FFF72EFF26
:1037040073E72946FFF72AFF6FE729462046FFF7AC
:1037140025FF6AE7204600F0D1FA66E738B504468B
:103724008B88FBB9CB88EBB94B887F2B1AD803F075
:103734007F0590F89C32DBB2032B0CD080F89E52AC
:103744002946FDF77FF9204600F0B8FA35B1022387
:1037540084F89C3209E0FFF701FF06E0012384F8B6
:103764009C3202E02046FFF7F9FE38BD70B50446EE
:103774000E468D782F4B1D70012D10D890F89C3279
:10378400DBB2022B0FD0032B26D0FFF7E7FE294B29
:1037940019782046FFF7FAFC0325284670BDFFF789
:1037A400DDFE0325F9E7A5B145602946FFF7E5FCF1
:1037B400054638B131462046FFF7D0FE022384F88F
:1037C4009C32EAE7204600F079FA032384F89C321D
:1037D400E3E700F073FAE0E7CDB141688D4225D00C
:1037E400C9B2FFF7D3FC134B197861602046FFF789
:1037F400C4FC0546B0B131462046FFF7AFFE21793F
:103804002046FFF7C3FC022384F89C32C5E7022359
:1038140080F89C3245602946FFF7B8FC204600F04A
:103824004DFABAE7204600F049FAB6E700F046FA46
:103834000025B2E7040C002008B5CB88012B0BD17E
:1038440090F89C32DBB2022B09D9032B09D1012257
:10385400011D00F007FA01E0FFF780FE08BD5BB22E
:1038640013B9FFF77BFEF9E70146002341F8083F4F
:10387400012200F0F7F9F1E708B590F89C32013B1A
:10388400022B12D8CB88022B0CD10123C360D0F8B1
:10389400A4320BB10323C360022200F10C0100F037
:1038A400E1F908BDFFF75AFEFBE7FFF757FEF8E71B
:1038B40008B54B88012B04D0022B07D0FFF74EFE2E
:1038C40008BDC0F8A43200F0F9F9F9E78B881B0AA7
:1038D40080F8A03200F0F2F9F2E708B590F89C32D3
:1038E400013B022B09D84B88012B00D008BD0023D3
:1038F400C0F8A43200F0E2F9F8E7FFF72FFEF5E78D
:1039040038B50C7804F06004202C06D0402C04D088
:103914006CB1FFF723FE002407E0D0F8D432AE33B5
:1039240050F823309B6898470446204638BD4D78AC
:10393400092D1DD8DFE805F012191C161C08051CFA
:103944000F0BFFF715FEF0E7FFF7E8FEEDE7FFF7D3
:103954000DFF0446E9E7FFF76FFFE6E7FFF78CFF8B
:103964002C46E2E7FFF7A4FFDFE7FFF7B6FFDCE74B
:10397400FFF7F4FDD9E770B505460C460B7803F064
:103984006003202B07D0402B05D023B1FFF7E6FDC1
:103994000026304670BD95F89C32013B022B26D898
:1039A4002179012905D921462846FFF7D7FD0026AC
:1039B400EFE72846FFF7BCFC68B900F1AE0255F802
:1039C4002220916889B1C5F8D4029368214628461B
:1039D4009847064600E00326E388002BD9D1002E41
:1039E400D7D1284600F06AF9D3E70326F4E7214645
:1039F4002846FFF7B3FD0026CBE72DE9F041064644
:103A04000D468B88DFB20C7804F06004202C08D0BB
:103A1400402C06D0DCB1FFF7A1FD00242046BDE810
:103A2400F08139463046FFF785FC0446002840F013
:103A3400F880C6F8D40200F1AE0356F823309B6830
:103A4400002BEBD02946304698470446E6E791F828
:103A54000180B8F1010F31D0B8F1030F05D0B8F1EE
:103A6400000F67D0FFF77AFDD8E790F89C32DBB2FD
:103A7400022B04D0032B12D0FFF770FDCEE70FB159
:103A8400802F04D129463046FFF768FDC6E7394642
:103A9400FCF7C8FF80213046FCF7C4FFBEE74B8823
:103AA40023B91FB1802F01D0CB881BB1304600F061
:103AB40005F9B3E73946FCF7B5FFF7E790F89C3210
:103AC400DBB2022B04D0032B12D0FFF747FDA5E78E
:103AD4000FB1802F04D129463046FFF73FFD9DE703
:103AE4003946FCF79FFF80213046FCF79BFF95E7A2
:103AF4004B88002B92D117F07F0F17D1304600F07E
:103B0400DDF839463046FFF715FC002886D1C6F8A3
:103B1400D40200F1AE0256F822209268002A00F086
:103B24008280294630469047044677E73946FCF7B9
:103B340081FFE3E790F89C22D2B2022A05D0032A3F
:103B440027D0FFF70BFD444668E70FB1802F13D150
:103B540013F0800F14D107F07F0707EB8707B90034
:103B640001F5A8713144043100230B600222304670
:103B740000F078F8444651E7FFF7F0FC44464DE77F
:103B840007F07F0707EB8707B90010313144043190
:103B9400EAE75BB2002B1FDB07F00F0202EB8202A5
:103BA40000EB8202B2F864211AB3002B25DB07F084
:103BB4007F0303EB83039C0004F5A87434440434AA
:103BC4000FB1802F22D100232360022221463046E8
:103BD40000F048F8444621E707F00F0202EB8202A6
:103BE40000EB8202928C002ADFD1FFF7B7FC444637
:103BF40014E7FFF7B3FC444610E707F07F0303EB39
:103C040083039C00103434440434D9E739463046E5
:103C1400FCF794FE10B101232360D6E70023236050
:103C2400D3E70024FAE60446F8E6D0B170B50D46B1
:103C340016460446FFF774FC431C5B009BB23380BA
:103C44002B7003236B70022307E0EA5401345A1CDF
:103C5400D2B20021A9540233DBB22278002AF4D173
:103C640070BD704708B513460222C0F894228361E0
:103C7400C3610A460021FCF7EDFE002008BD08B52B
:103C840013460A460021FCF7E5FE002008BD08B5EE
:103C940013460322C0F89422C0F85831C0F85C31AE
:103CA4000A460021FCF7DEFE002008BD08B51346D5
:103CB4000A460021FCF7D6FE002008BD08B5042200
:103CC400C0F8942200231A461946FCF7C3FE0020CC
:103CD40008BD08B50522C0F8942200231A461946E7
:103CE400FCF7C0FE002008BDD0F8D432B03350F841
:103CF4002330002083F85000704708B50346D0F8FD
:103D0400D42202F1B00150F8210030B103EB810359
:103D14005B68DB689847002008BD0320FCE710B50A
:103D2400D0F8D43203F1B00250F8224074B1E26CFE
:103D3400012A01D0002010BDB03300EB830043689A
:103D4400DB68204698470020E064F4E70320F2E7AC
:103D54000A230380004870471401002070B505460B
:103D64000D4E81213046FFF7BCFB0446012130464D
:103D7400FFF7B7FB2CB140222271002262710522A9
:103D8400A27128B14022027100224271052282717F
:103D940029232B80004870BDDC00002070B5054647
:103DA4000D4E81213046FFF79CFB0446012130462D
:103DB400FFF797FB2CB14022227100226271052289
:103DC400A27128B14022027100224271052282713F
:103DD40029232B80004870BDDC00002070B5054607
:103DE4000D4E81213046FFF77CFB0446012130460D
:103DF400FFF777FB2CB14022227100226271052269
:103E0400A27128B1402202710022427105228271FE
:103E140029232B80004870BDDC00002070B582B0DF
:103E2400D0F8D45205F1B00350F823300022ADF895
:103E34000620002B00F093800C7814F0600433D03B
:103E4400202C40F086804A78023A092A28D8DFE8F4
:103E540002F0150927272727271C10058A781A64DA
:103E6400002479E0012203F14001FFF7FBFE002466
:103E740072E04A88120A5A6400246DE0012203F1B8
:103E84004401FFF7EFFE002466E00122DA64CA88E9
:103E9400402A28BF40221946FFF7F9FE00245BE0C0
:103EA400FFF75CFB032457E04E780B2E4DD8DFE878
:103EB40006F006534C4C4C4C164C4C4C314090F88C
:103EC4009C32DBB2032B03D0FFF748FB032443E00F
:103ED40002220DF10601FFF7C5FE34463CE04B8893
:103EE4001B0A222B06D0212B0ED000210A46FFF7F5
:103EF400B9FE31E0CA88212A28BF2122B03500EB5F
:103F040085056B681968F2E7CA88092A28BF09225F
:103F14001449ECE790F89C22D2B2032A03D0FFF7AD
:103F24001DFB032418E0012203F14801FFF79AFE68
:103F340012E090F89C22D2B2032A02D18A789A64C1
:103F44000AE0FFF70BFB032406E0FFF707FB03245B
:103F540002E0FFF703FB0324204602B070BD0324F4
:103F6400FAE700BF0801002038B504468121FCF7B8
:103F740051FD00252587658701212046FCF74AFD70
:103F8400A4F87851A4F87A51D4F8D43203F1B002E9
:103F940054F822209AB1B03304EB83035B689B6826
:103FA4009847D4F8D432B03354F82300FCF714FD06
:103FB400D4F8D432B03344F82350C4F8BC520020AF
:103FC40038BDF8B504465420FCF702FD80B306461C
:103FD400D4F8D432B03344F82300C4F8BC02237CB0
:103FE40073BB05236387A4F87A314023032281211C
:103FF4002046FCF704FD0127278740230322394686
:104004002046FCF7FCFCA4F87871002586F8505093
:10401400D4F8D432B03304EB83035B685B6898470D
:104024004023324639462046FCF71CFD2846F8BD9D
:10403400D4F8D432B033002244F823200220F6E727
:1040440005236387A4F87A31CFE710B5D0F8D432CA
:1040540003F1B00C50F82C30C3B190F89CC25FFA55
:104064008CFCBCF1030F02D00024204610BD93F851
:1040740050400CB10124F8E74FF0010C83F850C014
:1040840013460A468121FCF7E5FCEEE70324ECE73E
:1040940008B5D0F8D432B03350F823202AB14023E5
:1040A4000121FCF7DFFC002008BD0320FCE739B147
:1040B400D0F8D432B03300EB830041600020704765
:1040C4000320704700487047080C0020044B00226E
:1040D4001A60FA2159601A615A619A61DA6170476B
:1040E400080C002008B5FFF7EDFF006808BD10B507
:1040F4000446FFF7E7FF046010BD08B5FFF7E2FFD1
:10410400406808BD10B50446FFF7DCFF446010BDED
:1041140008B5FFF7D7FF006908BD08B5FFF7D2FF60
:10412400406908BD10B50446FFF7CCFF446110BDDB
:1041340008B5FFF7C7FF806908BD08B5FFF7C2FFE0
:10414400C06908BD10B50446FFF7BCFFC46110BDCB
:10415400DFF834D00D480E490E4A002302E0D4584B
:10416400C4500433C4188C42F9D30B4A0B4C0023BB
:1041740001E013600432A242FBD3FEF7BFFF00F05C
:1041840011F8FCF7E7F87047000004200000002055
:1041940020010020B846000820010020040F002060
:1041A400FEE7000070B50D4D0D4C641BA4100026F5
:1041B400A64209D10B4D0C4C00F036FA641BA41036
:1041C4000026A64205D170BD55F8043B9847013638
:1041D400EEE755F8043B98470136F2E7B04600088D
:1041E400B0460008B0460008B4460008024403463E
:1041F400934200D1704703F8011BF9E7427800218C
:10420400432A05D182784F2A04BFC278442A01D0B8
:10421400C8B270470279452A04BF42795F2AF7D1B0
:104224008379C2794C2B08BF442A1BD0532B08BF77
:10423400502AEDD1017A3222407A31393138CBB269
:104244004A430021052B38BF02F132010828DFD888
:10425400DFE800F0051316191C1F2225280005317C
:10426400C8B27047007AA0F13101CAB20021032A12
:1042740038BFA0F13001C8B270470A31C8B27047E4
:104284000F31C8B270471431C8B270471931C8B27F
:1042940070471E31C8B270472331C8B27047283105
:1042A400C8B270472D31C8B2704710B584B002ACA3
:1042B400009400F005F8029A039B04B010BDFEDEE2
:1042C40080B56F4600F008F8D7F808C0BCF1000FBD
:1042D40018BFCCE9002380BDF0B503AF2DE900077A
:1042E4008E468446002A7BD0002B79D1BEF1000F84
:1042F40000F0F980964580F00281BEFA8EF0B2FAA1
:1043040082F1081A00F1200108BF1F2101F03F04C7
:1043140001F01F0103FA04F0C4F1200302FA04F9C6
:1043240022FA03F31843B4F120034FF0010404FA12
:1043340001F84FF0000158BF02FA03F058BF4FF0E4
:10434400000908E0AC46B6464FEA191343EA00797F
:104354004FEA18180009BCEB09056EEB0006B6F12C
:10436400FF3F04DD41EA0801AC4616B930E065467A
:1043740076465FEA50044FEA3903B5EB030C66EB6B
:104384000404002C03D441EA580102D120E0AC46D5
:1043940034464FEA990343EA8073BCEB030564EBAC
:1043A4009006002E04D441EA9801AC4602D10FE0F5
:1043B400654626464FEAD90343EA4073B5EB030C3E
:1043C40066EBD00EBEF1000FBCD441EAD801BBD1DC
:1043D400BCFBF2F04FF0000E00FB12CC084388E067
:1043E400BCEB02014FF000007EEB0301C0F08180C2
:1043F400BEF1000F7DD0BEFA8EF0B3FA83F1081A35
:1044040000F03F0400F01F00C4F1200503FA04F19A
:1044140002FA04F922FA05F545EA010AB4F1200585
:1044240058BF02FA05FA4FF0010558BF4FF00009D2
:1044340005FA00F8002009E0B446AE464FEA191127
:1044440041EA0A794FEA18184FEA1A1ABCEB09052F
:104454006EEB0A06B6F1FF3F08DDA91A40EA080030
:1044640076EB0301AC46B64602D242E06546764698
:104474005FEA5A044FEA3901B5EB010C76EB040EFE
:1044840007D4BCEB020140EA58007EEB030102D2E0
:104494002FE0AC46B6464FEA990141EA8A71BCEB7B
:1044A40001066EEB9A05002D08D4B11A40EA980073
:1044B40075EB0301B446AE4602D21AE06646754671
:1044C4004FEAD90141EA4A71B6EB010C65EBDA0E09
:1044D400BEF1000FB0D4BCEB020140EAD8007EEB81
:1044E4000301ABD205E0BCFBF2F04FF0000E00FB81
:1044F40012CC002162467346BDE80007F0BD0BD123
:10450400BCFBFEF0012100FB1ECC4FF0000E624606
:104514007346BDE80007F0BDBEFBF2F1B2F5803F83
:1045240001FB12EE18D24FEA0E404FF0000E40EAA3
:104534001C40B0FBF2F303FB120041EA1341CCEA46
:104544000040B0FBF2F606FB120C46EA034062465A
:104554007346BDE80007F0BDBCEB02007EEB030030
:1045640005D2002062467346BDE80007F0BDD807B7
:1045740040EA520A4FEAC2794FF00048002009E0AD
:10458400B446A6464FEA191343EA0A794FEA1818C3
:104594004FEA1A1ABCEB09066EEB0A04B4F1FF3FAA
:1045A40004DD40EA0800B44614B930E066467446B7
:1045B4005FEA5A054FEA3903B6EB030C64EB0505D1
:1045C400002D03D440EA580002D120E0B446254629
:1045D4004FEA990343EA8A73BCEB030665EB9A043A
:1045E400002C04D440EA9800B44602D10FE0664699
:1045F4002C464FEAD90343EA4A73B6EB030C64EB47
:10460400DA0EBEF1000FBBD440EAD800BAD1BCFB2D
:10461400F2F34FF0000E03FB12CC184362467346CC
:10462400BDE80007F0BD0000F8B500BFF8BC08BC49
:104634009E467047F8B500BFF8BC08BC9E4670475C
:1046440042414C4C554646205553422044657669B8
:104654006365000053544D6963726F656C656374E0
:10466400726F6E6963730000437573746F6D2048D5
:10467400494420436F6E6669670000004375737494
:104684006F6D2048494420496E74657266616365A4
:10469400000000000000000000000000010203040C
:0446A40006070809F4
:0846A80058FBFF7F0100000038
:0446B000E901000814
:0446B400C501000834
:1046B80001000000110500081D050008ED050008AF
:1046C800C9050008B5050008090600082D060008F8
:1046D80029050008050F0C00010710020200000060
:1046E8001201010200000040830450570002010239
:1046F80003010000040309041A030000000000007D
:1047080000000000000000000000000000000000A1
:10471800000000000600FF0901A101150026FF00A6
:10472800750895400901810295400901910295019A
:104738000901B102C0000000640000205106000811
:104748005506000859060008010000001000000086
:104758000024F400C73F00086D3F0008213E000810
:1047680000000000233D0008ED3C0008FF3C000865
:10477800000000000000000000000000E13D00080B
:10478800A13D0008613D0008553D000809022900C7
:10479800010100C0320904000002030000000921E1
:1047A80011010001222100070581034000010705CE
:1047B800010340000100000009211101000122212C
:1047C800000000000A06000200000040010000008E
:040000050800415559
:00000001FF
